:020000040800F2
:10000000202B0020A96B0008B1050008B3050008EB
:10001000B7050008BB050008BF0500080000000088
:10002000000000000000000000000000C305000800
:10003000C505000800000000C7050008C905000844
:10004000C36B0008C36B0008C36B00087F3900084E
:10005000C36B0008C36B0008C36B0008C36B0008C8
:1000600041660008C36B0008C36B0008C36B00083F
:10007000C36B0008C36B0008C36B0008C36B0008A8
:10008000C36B0008C36B0008C36B0008C36B000898
:10009000C36B0008C36B0008C36B0008C36B000888
:1000A000C36B0008C36B0008C36B0008C36B000878
:1000B000C36B00086B5200080B550008C36B0008A7
:1000C000C36B0008C36B0008C36B0008C36B000858
:1000D000C36B00081F6B0008C3520008C36B000805
:1000E000C36B0008C36B0008C36B0008C36B000838
:1000F000C36B0008C36B0008C36B0008C36B000828
:10010000C36B0008C36B0008C36B0008C36B000817
:10011000C36B0008C36B0008C36B0008C36B000807
:10012000C36B0008C36B0008C36B0008C36B0008F7
:1001300000F002F800F0B4F80AA090E8000C824445
:100140008344AAF10107DA4501D100F0A9F8AFF222
:10015000090EBAE80F0013F0010F18BFFB1A43F0A5
:1001600001031847E02302000024020010F8013BBD
:100170000A4413F0030408BF10F8014B1D1108BF17
:1001800010F8015B641E05D010F8016B641E01F8C5
:10019000016BF9D1002D15D010F8014B03F00C03C1
:1001A0000C2BA1EB04040ABF10F8013BA4EB831451
:1001B000A4EB032405F1010314F8016B5B1E01F8A5
:1001C000016BF9D5914238BF10F8013BD1D370478C
:1001D0000023002400250026103A28BF78C1FBD850
:1001E000520728BF30C148BF0B6070476E2909F025
:1001F000C081702908F07A8766290AF0D1826529C2
:100200000AF0CE8267290AF0CB826129AFF3008021
:1002100003681B0A28BF41F08001692908F0E886BD
:10022000642908F0E586752908F0E2866F2909F04F
:10023000A582782908F04687E92909F03D82E4295A
:1002400009F03A82F52909F03782EF2909F0A282F4
:10025000F82908F045870368DB0928BF41F08001D1
:10026000632909F02785732909F02C85E32909F012
:100270003785F32909F03C85002070471FB509F048
:100280008DFD0400002000210AF074FA401C60601B
:10029000002000210AF058FAE0601FBD10B510BD23
:1002A00009F04EFD1146FFF7E9FF00F058F809F09C
:1002B0002BFE03B4FFF7F2FF03BC06F0D3FB0000F4
:1002C00010B506F061FB03F005F906F0C5FB41F639
:1002D0001F41092004F09CFF4FF4165006F0D0FB9C
:1002E0004FF4165005F06CF803F0EAFA04F0D8FB6E
:1002F00003F0E6FB012004F0E5FB002003F00AFD1B
:1003000000F052FA04F052FD06F02DFB03F0BDF8A8
:100310004FF47A7006F074FBC42370221921412037
:1003200004F044FA8EA004F081FB05F0A6FC05F071
:100330005EFA50B1C82360223221502004F036FA10
:100340008BA004F073FB00BFFEE7C82360223221BC
:10035000502004F02BFA00208C49087010BD0EB517
:10036000FF24FF25FFF7ACFFF9E003F0D5F80446C2
:10037000122C07D18648006808B9012000E000204F
:1003800083490860822C04D102208249087000F061
:1003900076FB8048007805287AD2DFE800F0030D6C
:1003A000C6CED60000F046FA00F0BBFA222C02D1ED
:1003B000012078490870D1E000F03CFA76480078D6
:1003C00020B900F002FA012073490870222C0BD1E9
:1003D000C8239B2214216B2004F0E8F900206E4909
:1003E000087008706B4908706C4804F0C0FE054640
:1003F000FF2D77D0212D21D006DC012D09D0022D33
:1004000031D0032D6FD159E0222D42D0232DF9D1C7
:100410006AE06348007880B940F21F504FF4784199
:10042000604A0323CDE9002102902A2217216E2081
:1004300000F0E5FA01205A49087074E0C82006F07F
:10044000DFFA002056490870C8239B2214216B2034
:1004500004F0ACF900205049087000F010FB0220B5
:100460004C4908705FE04E48007880B940F21F5058
:100470004FF478414C4A0323CDE9002102902A220F
:100480005A216E2000F0BBFA0120454908704AE06D
:1004900063E0C82006F0B4FA002041490870C82380
:1004A0009B2214216B2004F081F900203A49087046
:1004B00001F028FE04203749087034E038480078FD
:1004C00078B940F21F500021384A0323CDE90021BA
:1004D00002902A229B216E2000F091FA01203049DF
:1004E000087020E020E01DE0C82006F089FA002016
:1004F0002B490870C8239B2214216B2004F056F965
:10050000002025490870CE2344220E21142004F037
:100510004DF900201D49087000F0C8FB03201D495B
:10052000087000E000BF00BF18E005F004FF00F015
:100530003BF901201749087010E000F003FE00F0BD
:1005400033F901201349087008E001F03EFF00F084
:100550002BF901200F49087000E000BF00BF04E73D
:10056000D5FDD4DAB3F5CABCBBAFCDF8C2E7000005
:10057000B3F5CABCBBAFCDF8C2E7CAA7B0DCA3AC29
:10058000C7EBD6D8D0C2C9CFB5E7000034000020F1
:100590009C01224200000020360000207D5000080F
:1005A000370000206F000208370E0208B00D00204F
:1005B000704700BFFEE700BFFEE700BFFEE700BFD9
:1005C000FEE7704770477047704700000CB5002089
:1005D000019000906B48006840F4803069490860E1
:1005E00000BF6848006800F4003000900198401C8B
:1005F0000190009818B90198B0F5A06FF1D1614849
:10060000006810F4003F02D00120009001E00020BB
:1006100000900098012842D15B48006840F010002B
:10062000594908600846006820F003000860084641
:10063000006840F002000860524840685149486034
:100640000846406848600846406840F4806048605A
:100650000846406820F47C1048600846406840F432
:10066000E81048600846006840F08070086000BFED
:100670004448006810F0007FFAD04248406820F0FB
:100680000300404948600846406840F00200486066
:1006900000BF3C48406800F00C000828F9D10CBDB0
:1006A00010B5FFF793FF10BD10B53648006840F055
:1006B000010034490860084640683449084031491F
:1006C000486008460068324908402E4908600846DC
:1006D000006820F4802008600846406820F4FE008E
:1006E00048604FF41F008860FFF7DAFF4FF00060AA
:1006F0002849086010BD10B5002100200022214BC0
:100700005B6803F00C0121B1042906D0082928D127
:1007100007E0214B214C236027E01F4B1F4C236037
:1007200023E0184B5B6803F47010164B5B6803F40E
:100730008032022303EB904022B9194B4343174CFC
:1007400023600DE00F4B5B6813F4003F04D0144BA3
:100750004343124C236003E00F4B43430F4C236091
:1007600003E00D4B0D4C236000BF00BF054B5B68E1
:10077000C3F303130B4CE15C084B1B68CB40074CE5
:10078000236010BD00100240002002400000FFF86E
:10079000FFFFF6FE08ED00E000127A0004000020E2
:1007A00000093D000800002008B5C048DC23B02245
:1007B00000210090084603F089FC0020BC49087025
:1007C000BC490870BC49087008BD1CB5BA4800781F
:1007D00001280BD1AC2386222C21762003F0E6FFE2
:1007E000BC2386228C21762003F0E0FF0020B34951
:1007F0002A231A46CDE900109B216E2004F012F83E
:100800004FF47840AE492A231A46CDE900105A2108
:100810006E2004F007F84FF47840AA492A231A46BC
:10082000CDE9001017216E2003F0FCFF0020A24943
:1008300008701CBD00B587B0A3A000680690A3A2F5
:1008400007CA03AB07C39A480078B8B9A2488078B2
:100850000090A14843780278A0A103A808F088FB83
:10086000012003214FF6FF7303AACDE900100E21EA
:10087000142003F063FC01208D49087096488078AD
:100880009A49097888424AD09348807897490870F5
:100890009148827896A106A808F06AFB01200321FE
:1008A0004FF6FF7306AACDE900109E21142003F035
:1008B00045FC894840789049097888422FD086487D
:1008C00040788D4908708448427889A106A808F0CC
:1008D0004FFB012003214FF6FF7306AACDE900105C
:1008E0005621142003F02AFC7B48007883490978BC
:1008F000884214D078480078804908707648027899
:100900007BA106A808F034FB012003214FF6FF73FA
:1009100006AACDE900100E21142003F00FFC07B049
:1009200000BD3EB568A0006802906348007828B119
:100930006948C0797249097888425FD02C2466489A
:10094000C0796F490870644882796EA102A808F0E6
:100950000FFB012000904FF6FF7302AA2146019081
:10096000762003F0EBFB5C488079092803DD04F175
:100970001000C4B202E004F10800C4B201204FF636
:10098000FF7361A221460090762003F0FEFD04F182
:100990001000C4B25048C2795AA102A808F0E8FA7F
:1009A000012000904FF6FF7302AA214601907620A5
:1009B00003F0C4FB4848C079092803DD04F11000A6
:1009C000C4B202E004F10800C4B201204FF6FF7384
:1009D0004EA221460090762003F0D7FD0120009022
:1009E0003D48007A4A4951F820204FF6FF738C2188
:1009F000762003F0CAFD01202F4908703EBD2DE985
:100A0000F84F0746884614461D46DDF830B0DDF83D
:100A100028A004FB04F040000090022303FB0543E0
:100A20009AB2A8EB050399B27B1B98B25B4603F020
:100A300089F908EB0400401E83B23819401E82B2C7
:100A40004146384603F043F9002613E00AEB06005E
:100A500041781AF8060001EB00201FFA80F90B9884
:100A6000814503D0484602F0D8FF02E0584602F024
:100A7000D4FFB61C00988642E8D3BDE8F88F1CB5B9
:100A8000FFF792FE4FF6FF70224914232A22CDE988
:100A900000106421782003F0C5FE0020044908708E
:100AA00004490870044908701CBD0000EFD100081B
:100AB000340000203600002035000020B00D00205A
:100AC000370E02086F00020820200000202020209E
:100AD0002020202000000000AA1B002025303275B5
:100AE0003A253032753A2530327500003800002042
:100AF0002530327500000000390000203A00002047
:100B00003B000020252D7500D4C20000C8D5000090
:100B100018000020FF1B020830B585B00446FEA275
:100B2000D2E900109268CDE903020291002C57D15E
:100B300040F21F502823252200210090162003F0A8
:100B400033F94FF6FF70282337220021009026202A
:100B500003F02AF940F21F504FF6FF73F1A204216F
:100B60000090162003F0ECF94FF6FF7040F21F538F
:100B7000EEA204210090262003F0E2F9ED488078EF
:100B80000090EC4843780278EBA102A808F0F0F955
:100B9000012004214FF6FF7302AACDE900104B217A
:100BA000162003F0CBFA4FF6FF706A2331224B2157
:100BB00000901A2003F0F8F8DE480278E2A102A8BB
:100BC00008F0D6F900208DF80A00042140F21F53E6
:100BD00002AACDE900104B21162003F0AFFA63E022
:100BE0004FF6FF702823252200210090162003F0E5
:100BF000DBF840F21F5028233722002100902620E6
:100C000003F0D2F84FF6FF7040F21F53C5A2042143
:100C10000090162003F094F940F21F504FF6FF7336
:100C2000C2A204210090262003F08AF9C1488088DE
:100C3000642190FBF1F201FB1205BE48C0790090DF
:100C4000BC4883792A46C2A102A808F091F9012084
:100C500004214FF6FF7302AACDE900104B211620A4
:100C600003F06CFA4FF6FF706A2331224B2100909B
:100C70001A2003F099F8AF488088642190FBF1F2C4
:100C800001FB12052A46B0A102A808F071F9002064
:100C90008DF80A00042140F21F5302AACDE900108A
:100CA0004B21162003F04AFA05B030BD7CB5032075
:100CB00002F08AFE41F2080002F0AFFE4FF6FF702C
:100CC000DB23AF22002100904B2003F06DF80320BE
:100CD00002F07AFE41F2380002F09FFE40F21F500F
:100CE000DB23AF22002100904B2003F0A3F840F259
:100CF0001F50DC23012200210090642003F07BF8C8
:100D000040F21F50DC230122002100907D2003F0DF
:100D100072F840F21F50DC2301220021009096203F
:100D200003F069F840F21F50642302224921009029
:100D30004B2003F060F840F21F50642302229221FE
:100D400000904B2003F057F8002422E0032094FB8E
:100D5000F0F100FB114000EBC00101EB80101F30EF
:100D600085B2032094FBF0F000EBC00101EB001012
:100D70004C3086B200200221CDE90010784850F8AE
:100D8000242040F21F532946304603F0D7F9601C57
:100D9000C4B20C2CDADB0020FFF7BEFE7CBD2DE9CF
:100DA000FC4104460C2C7DDA032094FBF0F100FB9F
:100DB000114000EBC00101EB8010483085B20320E8
:100DC00094FBF0F000EBC00101EB0010633086B241
:100DD000032094FBF0F100FB114000EBC00101EB9C
:100DE0008010401C87B2032094FBF0F000EBC001A0
:100DF00001EB00104C301FFA80F840F21F502B46D8
:100E0000324639460090404602F0CEFF032094FB64
:100E1000F0F100FB114000EBC00101EB8010483005
:100E200085B2032094FBF0F000EBC00101EB001051
:100E3000633086B2032094FBF0F100FB114000EB1D
:100E4000C00101EB8010401C87B2032094FBF0F03E
:100E500000EBC00101EB00104C301FFA80F84FF698
:100E6000FF702B46324639460090404602F0E2FFC2
:100E7000032094FBF0F100FB114000EBC00101EBFB
:100E800080101F3085B2032094FBF0F000EBC0010E
:100E900001EB00104C3086B200200221CDE9001099
:100EA0002F4800E007E050F824204FF6FF73294652
:100EB000304603F043F9BDE8FC812DE9FC410446CE
:100EC0000C2C79DA032094FBF0F100FB114000EBCD
:100ED000C00101EB8010483085B2032094FBF0F094
:100EE00000EBC00101EB0010633086B2032094FBDD
:100EF000F0F100FB114000EBC00101EB8010401C41
:100F000087B2032094FBF0F000EBC00101EB00106E
:100F10004C301FFA80F825E02020202020202020BF
:100F200000000000CAB1BCE400000000C8D5C6DA69
:100F300000000000AA1B0020253032753A2530320F
:100F4000753A2530327500002530327500000000FA
:100F5000253032752D253032752D25303275000043
:100F60003C0000204FF6FF702B4632463946009079
:100F7000404602F019FF032094FBF0F100FB114002
:100F800000EBC00101EB80101F3085B2032094FB01
:100F9000F0F000EBC00101EB00104C3086B20020F5
:100FA0000221CDE90010F74850F8242040F21F53E9
:100FB0002946304603F0C2F8BDE8FC8170B506460C
:100FC0000D4614460D2D35D2DFE805F03407200814
:100FD0001509160A0B170C180D0000BF00BF00BF43
:100FE00000BF00BF00BF1F2C03DC002C01DD01206F
:100FF00070BD0020FCE700BF00BF00BF1E2C03DC5B
:10100000002C01DD0120F3E70020F1E7304602F07B
:1010100063FB012806D11D2C02DC002C00DDE7E774
:101020000020E5E71C2C03DC002C01DD0120DFE7BC
:101030000020DDE700BF00BF0020D9E77CB569468E
:1010400001A803F038FF002430E000252AE004EB7B
:10105000C40000EB04104C30BDF8041088421FDAC5
:1010600005EBC50000EB8510401CBDF80010884260
:1010700016DA04EBC40000EB04106330BDF8041072
:1010800088420DDD05EBC50000EB85104830BDF84A
:101090000010884204DD04EB44002844C0B27CBD4B
:1010A000681CC5B2032DD2DB601CC4B2042CCCDB9F
:1010B000BDF8040016280DDDBDF80000002809DD8C
:1010C000BDF80400372805DABDF80000282801DA49
:1010D0000C20E4E7BDF8040016280DDDBDF8000083
:1010E0004B2809DDBDF80400352805DABDF80000FD
:1010F0006A2801DA0D20D2E7BDF8040016280DDDBC
:10110000BDF800007A2809DDBDF80400352805DAAD
:10111000BDF800009A2801DA0E20C0E7BDF80400EF
:1011200016280DDDBDF80000AA2809DDBDF8040071
:10113000352805DABDF80000CA2801DA0F20AEE72D
:10114000FF20ACE700B597B0002013908EA0006898
:1011500012908EA000681190AFF24421D1E90002F4
:101160008968CDE90F210E9089488088642190FB21
:10117000F1F201FB1200C0B20D90854880790C900D
:101180008348C0790B90824800780A908048407864
:1011900009907F488078089000200590FDE302F0D8
:1011A000BBF915901598222800D1F7E3AFF2731020
:1011B00003F0DDFF16901698FF287DD016981028B2
:1011C0000BDA7448017816988142E7D01698FFF739
:1011D000E6FD704916980870E0E7169800F00F00D9
:1011E00014901498FFF769FE14980C287EDA14986E
:1011F000092802DB14980A2879D11498092806DAFC
:101200001498401CC1B206AA0598115403E00021AD
:1012100006AA059811541398002869D10598062844
:101220001CD2DFE800F0031CBBD5FDFC06A9059825
:10123000085C024658A1049012A807F099FE01200C
:1012400004214FF6FF7312AACDE900104B2116209E
:1012500002F074FF0598401CC0B20590EBE106A9AE
:101260000598095C401E06AA105C00EB800001EBAB
:101270004000182854DA06A90598095C401E105C45
:1012800000EB800001EB4000C0B20A90AFF24831A1
:1012900011A80A9A07F06CFE012004214FF6FF7393
:1012A00011AACDE900104B21162002F047FF059846
:1012B000401CC0B2059000E0EFE308980090AFF248
:1012C00088310EA8DDE9093207F052FE0120042121
:1012D0004FF6FF730EAACDE900104B21162002F045
:1012E0002DFF4FF6FF709A23312202E0C3E37AE329
:1012F000A2E17A2100901A2002F056FDAFF2B83137
:1013000011A8099A07F034FE0021042040F21F536F
:1013100011AACDE900017A21162002F00FFF2FE07B
:1013200008980090AFF2F0310EA8DDE9093207F01D
:101330001FFE012004214FF6FF730EAACDE9001015
:101340004B21162002F0FAFE4FF6FF706A2331227D
:101350004B2100901A2002F027FDAFF2144111A892
:101360000A9A07F005FE0021042040F21F5311AA3B
:10137000CDE900014B21162002F0E0FE002005908F
:1013800059E100003C000020200000002020000067
:10139000AA1B00206C0000202575000006A90598F6
:1013A000085C0246AFF21001049012A807F0E0FDBD
:1013B000012004214FF6FF7312AACDE900107A2113
:1013C000162002F0BBFE0598401CC0B2059032E129
:1013D00006A90598095C401E06AA105C00EB800077
:1013E00001EB40003C2851DA06A90598095C401E33
:1013F000105C00EB800001EB4000C0B20990AFF23E
:10140000B84111A8099A07F0B3FD012004214FF655
:10141000FF7311AACDE900104B21162001E080E0F6
:1014200065E002F08BFE0598401CC0B2059008985C
:101430000090AFF2FC410EA8DDE9093207F098FDFB
:10144000012104204FF6FF730EAACDE900014B21C4
:10145000162002F073FE4FF6FF70CA233122AA2134
:1014600000901A2002F0A0FCAFF2245111A8089AB3
:1014700007F07EFD0021042040F21F5311AACDE9A0
:101480000001AA21162002F059FE2FE008980090D2
:10149000AFF25C510EA8DDE9093207F069FD0120C9
:1014A00004214FF6FF730EAACDE900104B21162040
:1014B00002F044FE4FF6FF709A2331227A21009009
:1014C0001A2002F071FCAFF2805111A8099A07F0BE
:1014D0004FFD0020042140F21F5311AACDE9001056
:1014E0007A21162002F02AFE02200590A3E006A928
:1014F0000598085C0246AFF26011049012A807F04C
:1015000037FD012004214FF6FF7312AACDE9001028
:10151000AA21162002F012FE0598401CC0B20590C8
:1015200089E006A90598095C401E06AA105C00EB3C
:10153000800001EB40003C284CDA06A90598095CC4
:10154000401E105C00EB800001EB4000C0B2089030
:10155000AFF20C6111A8099A07F00AFD01200421DD
:101560004FF6FF7311AACDE900104B21162002F0AF
:10157000E5FD0020059008980090AFF244610EA8A8
:10158000DDE9093207F0F4FC012004214FF6FF7376
:101590000EAACDE900104B21162002F0CFFD4FF628
:1015A000FF706A2331224B2100901A2002F0FCFBCD
:1015B000AFF26C6111A80A9A07F0DAFC002004214E
:1015C00040F21F5311AACDE900104B21162002F062
:1015D000B5FD2FE008980090AFF2A4610EA8DDE9F8
:1015E000093207F0C5FC012004214FF6FF730EAA53
:1015F000CDE900104B21162002F0A0FD4FF6FF7040
:10160000CA233122AA2100901A2002F0CDFBAFF2AA
:10161000C86111A8089A07F0ABFC0020042140F231
:101620001F5311AACDE90010AA21162002F086FD51
:101630000420059000BF5FE3059806281DD2DFE86F
:1016400000F0031D6D87FEFD06A90598085C0246A3
:10165000AFF2BC21049012A807F08AFC01210420FB
:101660004FF6FF7312AACDE900014B21162002F0BC
:1016700065FD0598401CC0B20590B3E106A9059828
:10168000095C401E06AA105C00EB800001EB4000E4
:10169000C0B20D90AFF2507111A80D9A07F068FC1E
:1016A000012004214FF6FF7311AACDE900104B2150
:1016B000162002F043FD0598401CC0B205900B981F
:1016C0000090AFF274710EA8DDE90C3207F050FC07
:1016D000012004214FF6FF730EAACDE900104B2123
:1016E000162002F02BFD4FF6FF709A2331227A214B
:1016F00000901A2002F058FBAFF2B47111A80C9AB6
:1017000007F036FC0020042140F21F5311AACDE956
:1017100000107A21162002F011FD63E106A9059858
:10172000085C0246AFF29031049012A807F020FC4A
:10173000012004214FF6FF7312AACDE900107A218F
:10174000162002F0FBFC0598401CC0B2059049E150
:1017500006A90598095C401E06AA105C00EB8000F3
:1017600001EB40000D2858DA06A90598095C401ED7
:10177000105C00EB800011EB40004ED006A90598EC
:10178000095C401E105C00EB800001EB4000C0B221
:101790000C90AFF64C0111A80C9A07F0E9FB012060
:1017A00004214FF6FF7311AACDE900104B2116203A
:1017B00002F0C4FC0598401CC0B205900B98009044
:1017C000AFF674010EA8DDE90C3207F0D1FB012160
:1017D00004204FF6FF730EAACDE900014B2116201D
:1017E00002F0ACFC4FF6FF70CA233122AA21009010
:1017F0001A2002F0D9FAAFF6B00111A80B9A07F03F
:10180000B7FB0021042040F21F5311AACDE90001CB
:10181000AA21162002F092FC32E00B980090AFF65D
:10182000D0010EA8DDE90C3207F0A2FB0121042053
:101830004FF6FF730EAACDE9000101E03BE020E086
:101840004B21162002F07AFC4FF6FF709A233122CA
:101850007A2100901A2002F0A7FAAFF6141111A80D
:101860000C9A07F085FB0020042140F21F5311AAB7
:10187000CDE900107A21162002F060FC02200590CC
:10188000B0E006A90598085C0246AFF2F441049066
:1018900012A807F06DFB012004214FF6FF7312AA76
:1018A000CDE90010AA21162002F048FC0598401C42
:1018B000C0B2059096E006A90598095C401E06AAEC
:1018C000105C00EB800001EB4000C0B202460490C7
:1018D000DDE90C1000F5FA60FFF770FB01284DD12F
:1018E00006A90598095C401E06AA105C00EB800062
:1018F00001EB4000C0B20B90AFF6B41111A8099AE9
:1019000007F036FB012004214FF6FF7311AACDE941
:1019100000104B21162002F011FC002005900B98BE
:101920000090AFF6D4110EA8DDE90C3207F020FBD1
:10193000012104204FF6FF730EAACDE900014B21CF
:10194000162002F0FBFB4FF6FF706A2331224B2179
:1019500000901A2002F028FAAFF6142111A80D9A6F
:1019600007F006FB0020042140F21F5311AACDE925
:1019700000104B21162002F0E1FB32E00B980090A2
:10198000AFF634210EA8DDE90C3207F0F1FA0120A0
:1019900004214FF6FF730EAA01E0ADE1AEE1CDE9FF
:1019A00000104B21162002F0C9FB4FF6FF70CA232E
:1019B0003122AA2100901A2002F0F6F9AFF6782120
:1019C00011A80B9A07F0D4FA0020042140F21F530B
:1019D00011AACDE90010AA21162002F0AFFB0420C5
:1019E000059000BF88E11498092801D117B000BD07
:1019F0000598049000EBD07041100498B0EB4100C2
:101A0000F0D11398B8B9DDE90810CDE90001BD485F
:101A1000C0790490BB4880790390BA4880880290CE
:101A20000A9BDDE9031201F0EFFE01F072FE0020D7
:101A3000B54908701EE0DDE90C1000F5FA600B9A5C
:101A4000FFF7BCFA012815D1AE488078AD49497836
:101A5000CDE90010AB48007803460490DDE90C1096
:101A600000F5FA600B9A01F0CFFE01F052FE002063
:101A7000A6490870BAE714980C2806D00D280DD096
:101A80000E2870D00F286DD1CFE01398C043C0B29C
:101A900013901398FFF740F82AE12AE100200590FF
:101AA000139870BB08980090AFF674310EA8DDE96A
:101AB000093207F05DFA012004214FF6FF730EAAE8
:101AC000CDE900104B21162002F038FB4FF6FF70D5
:101AD0006A2331224B2100901A2002F065F9AFF6FB
:101AE000983111A80A9A07F043FA0020042140F225
:101AF0001F5311AACDE900104B21162002F01EFB46
:101B00002EE0FFE70B980090AFF6BC310EA8DDE9A0
:101B10000C3207F02DFA012004214FF6FF730EAAB4
:101B2000CDE900104B21162002F008FB4FF6FF70A4
:101B30006A2331224B2100901A2002F035F9AFF6CA
:101B4000F83111A80D9A07F013FA0020042140F291
:101B50001F5311AACDE900104B21162002F0EEFA16
:101B6000C6E000E0C3E002200590139870BB08981F
:101B70000090AFF63C410EA8DDE9093207F0F8F914
:101B8000012104204FF6FF730EAACDE900014B217D
:101B9000162002F0D3FA4FF6FF709A2331227A21F1
:101BA00000901A2002F000F9AFF6644111A8099ADA
:101BB00007F0DEF90021042040F21F5311AACDE9FD
:101BC00000017A21162002F0B9FA2DE00B9800905E
:101BD000AFF684410EA8DDE90C3207F0C9F9012007
:101BE00004214FF6FF730EAACDE900104B211620F9
:101BF00002F0A4FA4FF6FF709A2331227A21009066
:101C00001A2002F0D1F8AFF6C04111A80C9A07F0E3
:101C1000AFF90021042040F21F5311AACDE90001C1
:101C20007A21162002F08AFA62E0042005901398C7
:101C300070BB08980090AFF600510EA8DDE909329C
:101C400007F096F9012004214FF6FF730EAACDE9A3
:101C500000104B21162002F071FA4FF6FF70CA23D4
:101C60003122AA2100901A2002F09EF8AFF62851E6
:101C700011A8089A07F07CF90020042140F21F53B4
:101C800011AACDE90010AA21162002F057FA2DE082
:101C90000B980090AFF648510EA8DDE90C3207F022
:101CA00067F9012004214FF6FF730EAACDE9001059
:101CB0004B21162002F042FA4FF6FF70CA23312260
:101CC000AA2100901A2002F06FF8AFF6845111A8F3
:101CD0000B9A07F04DF90020042140F21F5311AA7E
:101CE000CDE90010AA21162002F028FA00E000BF7A
:101CF00002E0FF2006490870FFF751BA00BF00BF9D
:101D000074E60000AA1B00203400002035000020EB
:101D10006C0000202DE9F84304460D46032094FB97
:101D2000F0F0C6B2032094FBF0F100FB1140C7B203
:101D300007F1010CCCEBCC0808EB8C1306F1010C7D
:101D4000CCEBCC08C8EB8C12C7EBC70C0CEB871C98
:101D50000CF10501C6EBC60CCCEB861C0CF10500A2
:101D6000009502F021F8BDE8F8832DE9FC41044616
:101D70000D46032094FBF0F0C6B2032094FBF0F173
:101D800000FB1140C7B2032007F1010CCCEBCC08DB
:101D900008EB8C1306F1010CCCEBCC08C8EB8C12D1
:101DA000C7EBC70C0CEB871C0CF10501C6EBC60C8E
:101DB000CCEB861CCDE900050CF1050002F09EFD80
:101DC000BDE8FC812DE9FC4104460D46032094FB4F
:101DD000F0F0C6B2032094FBF0F100FB1140C7B253
:101DE000032007F1010CCCEBCC0808EB8C1306F1B7
:101DF000010CCCEBCC08C8EB8C12C7EBC70C0CEB7E
:101E0000871C0CF10501C6EBC60CCCEB861CCDE99A
:101E100000050CF1050002F071FDBDE8FC81002019
:101E200000BF04E00221FE4A1154411CC8B206283A
:101E3000F8DD70471CB5FB4803F047FE00287CD155
:101E4000F8488078022803D0F6488078F649087070
:101E5000F448C078022803D0F248C078F2494870AC
:101E6000F0480079022803D0EE480079EE498870E6
:101E7000EC484079022803D0EA484079EA49C87022
:101E8000E8488079022803D0E6488079E64948711D
:101E9000E548007878B940F21F510020FFF73AFF7B
:101EA00040F21F504FF6FF73E0A216210090084643
:101EB00002F046F80EE04FF6FF710020FFF72AFF10
:101EC0004FF6FF7040F21F53D8A21621009008462B
:101ED00002F036F8D448407878B940F21F5101201A
:101EE000FFF718FF40F21F504FF6FF73D1A25521A4
:101EF0000090162002F024F80EE04FF6FF7101204A
:101F0000FFF708FF4FF6FF7040F21F53C9A255219B
:101F10000090162002F014F8C348807888B940F287
:101F20001F510220FFF7F6FE40F21F504FF6FF73DD
:101F3000C2A29C210090162000E0C5E002F000F84B
:101F40000EE04FF6FF710220FFF7E4FE4FF6FF7040
:101F500040F21F53B9A29C210090162001F0F0FF1F
:101F6000B148C07878B940F21F510320FFF7D2FE84
:101F700040F21F504FF6FF73B2A21E2100904F2077
:101F800001F0DEFF0EE04FF6FF710320FFF7C2FE07
:101F90004FF6FF7040F21F53AAA21E2100904F205F
:101FA00001F0CEFFA048407978B940F21F510520DA
:101FB000FFF7B0FE40F21F504FF6FF73A2A2AC2114
:101FC00000904F2001F0BCFF0EE04FF6FF7105209E
:101FD000FFF7A0FE4FF6FF7040F21F539AA2AC210C
:101FE00000904F2001F0ACFF8E48807902284DD040
:101FF0008C48C4794FF6FF7000EA04248948007ABF
:10200000204480B20A2190FBF1F084B222468FA1D5
:10201000904806F0ADFF8348447A4FF6FF7000EA1F
:1020200004248048807A204480B20A2190FBF1F099
:1020300084B2224685A1884806F09AFF40F21F50DC
:102040004623A1222D210090912001F0ADFE002019
:1020500002214FF6FF737F4ACDE900102D21912018
:1020600002F06CF840F21F508D23A12274210090E1
:10207000912001F099FE002002214FF6FF73764A6D
:10208000CDE900107421912002F058F848F2304058
:102090004FF6FF7371A24D2100904F2001F050FFC9
:1020A0004FF4487004F0ACFC40F21F510420FFF7DD
:1020B00031FE40F21F504FF6FF736BA25D2100907E
:1020C0004F2001F03DFF1CE048F230404FF6FF7317
:1020D00067A24D2100904F2001F032FF40F2DC500A
:1020E00004F08EFC40F21F510420FFF713FE40F273
:1020F0001F504FF6FF735CA25D2100904F2001F04E
:102100001FFF1CBD1CB5032001F05EFC41F208005E
:1021100001F083FC40F21F5001F0FCFD032001F0B0
:1021200053FC41F2380001F078FC0020534908705C
:1021300053490870534908700521DB23AF22CDE9CC
:102140000010014602F0DAFB00200421DC2301220A
:10215000CDE900100146392002F0AEFB0020042139
:10216000DC230122CDE900100146722002F0A4FB1D
:1021700000200421B0230222CDE90010472102F003
:102180009BFB00200421B0230222CDE900108E2108
:1021900002F092FB00200221B0230A46CDE9001094
:1021A000D52102F089FB2048007850B940F21F5039
:1021B0004FF6FF731DA216210090084601F0C0FEE5
:1021C0000EE04FF6FF710020FFF7A4FD4FF6FF7001
:1021D00040F21F5315A216210090084601F0B0FEF0
:1021E0001148407850B940F21F504FF6FF7311A2CA
:1021F00055210090162001F0A3FE0EE04FF6FF716E
:102200000120FFF787FD4FF6FF7040F21F5309A230
:1022100055210090162001F093FE0348807833E0AA
:10222000B8230020D8230020A01B0020BFD5B5F77D
:1022300000000000BFCDCCFCB5C60000CED4CAD291
:10224000B5C60000C3C50000B4B00000253032752B
:10225000000000006D00002070000020B8FCD0C21B
:10226000CDEAB3C900000000B8FCD0C200000000F5
:10227000B8FCD0C2CAA7B0DC0000000034000020C7
:10228000360000203500002058B940F21F504FF6AC
:10229000FF73AFF258029C210090162001F050FE0F
:1022A0000FE04FF6FF710220FFF734FD4FF6FF708D
:1022B00040F21F53AFF27C029C210090162001F0E7
:1022C0003FFEFE48C07858B940F21F504FF6FF73EA
:1022D000AFF290021E2100904F2001F031FE0FE07E
:1022E0004FF6FF710320FFF715FD4FF6FF7040F228
:1022F0001F53AFF2B0021E2100904F2001F020FECC
:10230000EE48407958B940F21F504FF6FF73AFF2D4
:10231000C802AC2100904F2001F012FE0FE04FF6F2
:10232000FF710520FFF7F6FC4FF6FF7040F21F53D8
:10233000AFF2EC02AC2100904F2001F001FE48F218
:1023400030410420FFF7E6FC48F230404FF6FF73BF
:10235000DBA24D2100904F2001F0F2FD40F21F5012
:102360004FF6FF73D9A20A2100907C2001F0E8FD0E
:10237000002002214FF6FF73D64ACDE900102D212F
:10238000912001F0DBFE40F21F504FF6FF73D2A206
:10239000512100907C2001F0D3FD002002214FF656
:1023A000FF73CF4ACDE900107421912001F0C6FEE1
:1023B00040F21F504FF6FF73CAA2A621009088205A
:1023C00001F0BEFDFFF736FD1CBD00B587B000F083
:1023D000B7BF01F0A1F805900598222801D107B0F8
:1023E00000BDC24802F0C3FE06900698FF28EED05A
:1023F000069809280FDAB1490698085C28B94FF603
:10240000FF710698FFF7B1FCE1E740F21F51069813
:10241000FFF7ABFCDBE7069800F00F000490049890
:10242000082804DA48F230410498FFF773FC049856
:10243000092880F08387DFE810F0090004014102D9
:10244000410347045504550569066F07FFF7E7FC8C
:102450009A48007801280DD10020A549887048F2DB
:1024600030404FF6FF73A3A206210090162001F022
:1024700067FD0CE001209E49887048F230404FF61D
:10248000FF739FA206210090162001F059FD9F497D
:10249000974803F089FB00287ED19C4800780028EB
:1024A00065D1934880789949897888422BD18348AF
:1024B0000078012813D100208049087040F21F5194
:1024C0000498FFF727FC40F21F504FF6FF73AFF25E
:1024D000A42216210090084601F032FDB0E0012050
:1024E000764908704FF6FF710498FFF713FC4FF61A
:1024F000FF7040F21F53AFF2CC2216210090084625
:1025000001F01EFD9CE048F230404FF6FF7380A2C0
:1025100006210090162001F013FD4FF47A7004F0AC
:102520006FFA66480078012810D14FF6FF710498C1
:10253000FFF7F0FB4FF6FF7040F21F53AFF214327B
:1025400016210090084601F0FBFC79E040F21F5193
:102550000498FFF7DFFB40F21F504FF6FF73AFF216
:10256000343216210090084601F0EAFC68E048F297
:1025700030404FF6FF7369A206210090162001F04B
:10258000DFFC4FF47A7004F03BFA4C4800780128E5
:1025900012D14FF6FF7100E01FE00498FFF7BAFB7D
:1025A0004FF6FF7040F21F53AFF2803216210090B9
:1025B000084601F0C5FC43E040F21F510498FFF7C4
:1025C000A9FB40F21F504FF6FF73AFF2A032162165
:1025D0000090084601F0B4FC32E048F230404FF67B
:1025E000FF7351A206210090162001F0A9FC4FF4C0
:1025F0007A7004F005FA31480078012810D14FF6BE
:10260000FF710498FFF786FB4FF6FF7040F21F53EF
:10261000AFF2E83216210090084601F091FC0FE07D
:1026200040F21F510498FFF775FB40F21F504FF620
:10263000FF73AFF2084216210090084601F080FCBB
:1026400041E3FFF7ECFB1D48407801280DD1002045
:102650002749C87048F230404FF6FF7325A24D213C
:102660000090162001F06CFC0CE001202049C8709D
:1026700048F230404FF6FF7321A24D210090162002
:1026800001F05EFC21491A4803F08EFA002873D14C
:102690001E480078002870D11548C0781B49C978B9
:1026A00088426CD105484078012851D10020034967
:1026B000487040F21F5104983CE00000A01B00202D
:1026C000D5FDD4DAB8FCD0C200000000CEC2B6C836
:1026D000000000006D000020CAAAB6C8000000007B
:1026E00070000020B7B5BBD800000000F75000080C
:1026F000B8230020D5FDD4DAB9D8B1D50000000048
:10270000D5FDD4DAB4F2BFAA00000000D82300201F
:10271000B2D9D7F7CAA7B0DC00000000C1ACBDD366
:10272000CAA7B0DC00000000B7A2CBCDCAA7B0DCBE
:1027300000000000FFF7EEFA40F21F504FF6FF7363
:10274000AFF2105255210090162001F0F9FBB4E0D1
:102750000120FE4948704FF6FF710498FFF7DAFA3E
:102760004FF6FF7040F21F53AFF2385255210090E0
:10277000162001F0E5FBA0E06BE035E0FFE748F252
:1027800030404FF6FF73AFF278024D2100901620D3
:1027900001F0D6FB4FF47A7004F032F9EB48407840
:1027A000012810D14FF6FF710498FFF7B3FA4FF6E6
:1027B000FF7040F21F53AFF2845255210090162053
:1027C00001F0BEFB79E040F21F510498FFF7A2FA36
:1027D00040F21F504FF6FF73AFF2A8525521009000
:1027E000162001F0ADFB68E048F230404FF6FF7371
:1027F000AFF2D8024D210090162001F0A1FB4FF45A
:102800007A7004F0FDF8D1484078012810D14FF6D5
:10281000FF710498FFF77EFA4FF6FF7040F21F53E6
:10282000AFF2F05255210090162001F089FB44E0F0
:1028300040F21F510498FFF76DFA40F21F504FF617
:10284000FF73AFF2106255210090162001F078FB63
:1028500033E048F230404FF6FF73AFF234124D21AF
:102860000090162001F06CFB4FF47A7004F0C8F869
:10287000B6484078012810D14FF6FF710498FFF751
:1028800049FA4FF6FF7040F21F53AFF258625521DC
:102890000090162001F054FB0FE040F21F51049805
:1028A000FFF738FA40F21F504FF6FF73AFF27C6229
:1028B00055210090162001F043FBC1E6FFF7AFFA67
:1028C000A248807801280ED10020A149087148F261
:1028D00030404FF6FF73AFF2E412942100901620BF
:1028E00001F02EFB0DE001209949087148F23040BB
:1028F0004FF6FF73AFF2F81294210090162001F00A
:102900001FFB9449924803F04FF900287ED191486B
:102910000078002866D18E4800798E49097988426E
:102920002BD18A488078012813D1002087498870EC
:1029300040F21F510498FFF7EDF940F21F504FF697
:10294000FF73AFF208729C210090162001F0F8FA94
:10295000B3E001207D4988704FF6FF710498FFF7BE
:10296000D9F94FF6FF7040F21F53AFF230729C213D
:102970000090162001F0E4FA9FE048F230404FF654
:10298000FF73AFF2742294210090162001F0D8FA60
:102990004FF47A7004F034F86C488078012810D134
:1029A0004FF6FF710498FFF7B5F94FF6FF7040F24C
:1029B0001F53AFF278729C210090162001F0C0FAEC
:1029C0007BE040F21F510498FFF7A4F940F21F503A
:1029D0004FF6FF73AFF29C729C210090162001F01D
:1029E000AFFA6AE048F230404FF6FF73AFF2D422FC
:1029F00094210090162001F0A3FA4FF47A7003F0AE
:102A0000FFFF52488078012812D100E021E04FF604
:102A1000FF710498FFF77EF94FF6FF7040F21F53E5
:102A2000AFF2E8729C210090162001F089FA44E090
:102A300040F21F510498FFF76DF940F21F504FF616
:102A4000FF73AFF608029C210090162001F078FA7F
:102A500033E048F230404FF6FF73AFF23432942146
:102A60000090162001F06CFA4FF47A7003F0C8FF62
:102A700036488078012810D14FF6FF710498FFF78F
:102A800049F94FF6FF7040F21F53AFF650029C21F8
:102A90000090162001F054FA0FE040F21F51049804
:102AA000FFF738F940F21F504FF6FF73AFF674028C
:102AB0009C210090162001F043FAC1E5FFF7AFF921
:102AC0002248C07801280ED100202149487148F2DF
:102AD00030404FF6FF73AFF2E432062100904F20F2
:102AE00001F02EFA0DE001201949487148F23040FA
:102AF0004FF6FF73AFF2F832062100904F2001F03D
:102B00001FFA1449124803F04FF8002871D11148F8
:102B10000078C0BB0E4840790E494979884233D1CC
:102B20000A48C07801281AD100200849C87040F22C
:102B30001F510498FFF7EEF840F21F504FF6FF7355
:102B4000AFF600121E2100904F2005E0A01B0020D0
:102B5000B8230020D823002001F0F2F9B3E00120CF
:102B6000FE49C8704FF6FF710498FFF7D3F84FF68F
:102B7000FF7040F21F53AFF634121E2100904F2019
:102B800001F0DEF99FE035E048F230404FF6FF7388
:102B9000AFF28442062100904F2001F0D1F94FF4AA
:102BA0007A7003F02DFFED48C078012810D14FF660
:102BB000FF710498FFF7AEF84FF6FF7040F21F5315
:102BC000AFF680121E2100904F2001F0B9F97AE093
:102BD00040F21F510498FFF79DF840F21F504FF646
:102BE000FF73AFF6A0121E2100904F2001F0A8F94C
:102BF00069E034E048F230404FF6FF73AFF2E44250
:102C0000062100904F2001F09BF94FF47A7003F0F9
:102C1000F7FED248C078012810D14FF6FF71049812
:102C2000FFF778F84FF6FF7040F21F53AFF6EC1243
:102C30001E2100904F2001F083F944E040F21F5123
:102C40000498FFF767F840F21F504FF6FF73AFF696
:102C50000C221E2100904F2001F072F933E048F25F
:102C600030404FF6FF73AFF24052062100904F20E4
:102C700001F066F94FF47A7003F0C2FEB748C078ED
:102C8000012810D14FF6FF710498FFF743F84FF673
:102C9000FF7040F21F53AFF654221E2100904F20C8
:102CA00001F04EF90FE040F21F510498FFF732F89F
:102CB00040F21F504FF6FF73AFF678221E210090AE
:102CC0004F2001F03DF93AE348F230404FF6FF73F0
:102CD000AFF214624D2100904F2001F031F9FFF75F
:102CE000A9F82CE3FFF79BF89C48407901280ED106
:102CF00000209B49887148F230404FF6FF73AFF2D5
:102D00000C62942100904F2001F01AF90DE001208F
:102D10009349887148F230404FF6FF73AFF220625A
:102D2000942100904F2001F00BF98E498C4802F05D
:102D30003BFF00287ED18B48007888BB884880798B
:102D40008849897988422CD184484079012813D157
:102D500000208249487140F21F510498FEF7DAFFC3
:102D600040F21F504FF6FF73AFF62432AC210090B3
:102D70004F2001F0E5F8B4E00120784948714FF6A2
:102D8000FF710498FEF7C6FF4FF6FF7040F21F5325
:102D9000AFF64C32AC2100904F2001F0D1F8A0E00A
:102DA00034E048F230404FF6FF73AFF29C6294215A
:102DB00000904F2001F0C4F84FF47A7003F020FE29
:102DC00066484079012810D14FF6FF710498FEF74C
:102DD000A1FF4FF6FF7040F21F53AFF69432AC21C3
:102DE00000904F2001F0ACF87BE040F21F510498B6
:102DF000FEF790FF40F21F504FF6FF73AFF6B83268
:102E0000AC2100904F2001F09BF86AE048F230407E
:102E10004FF6FF73AFF2FC62942100904F2001F057
:102E20008FF84FF47A7003F0EBFD4C48407901289D
:102E300012D100E021E04FF6FF710498FEF76AFF1F
:102E40004FF6FF7040F21F53AFF60442AC210090E2
:102E50004F2001F075F844E040F21F510498FEF74E
:102E600059FF40F21F504FF6FF73AFF62442AC21DA
:102E700000904F2001F064F833E048F230404FF604
:102E8000FF73AFF25C72942100904F2001F058F86C
:102E90004FF47A7003F0B4FD30484079012810D126
:102EA0004FF6FF710498FEF735FF4FF6FF7040F2C2
:102EB0001F53AFF66C42AC2100904F2001F040F858
:102EC0000FE040F21F510498FEF724FF40F21F501C
:102ED0004FF6FF73AFF69042AC2100904F2001F007
:102EE0002FF82CE248F230404FF6FF73AFF6240281
:102EF0000A2100907C2001F023F848F230404FF680
:102F0000FF7319A218210090962001F019F81548B6
:102F100002F0DBFD00287DD11248007870BB11481B
:102F20008079022854D048F230404FF6FF7310A247
:102F30000A210090962001F003F84FF47A7003F014
:102F40005FFD0848C07903904FF6FF71039801EACE
:102F5000002003900348017A039810E0A01B002092
:102F6000B8230020D8230020B8FCD0C2D6D000005F
:102F7000B8FCD0C2B3C9B9A6000000005EE00844A6
:102F800080B20A2190FBF1F080B20390AFF6445179
:102F9000EC48039A05F0ECFF40F21F510620FEF7C3
:102FA000B9FE40F21F504FF6FF73AFF6E0020A2160
:102FB00000907C2000F0C4FF002002214FF6FF7338
:102FC000E04ACDE900102D21912001F0B7F89CE0F6
:102FD00048F230404623A6220A210090962000F0B5
:102FE000E3FE48F230404FF6FF73AFF67C520A2101
:102FF0000090962000F0A4FF4FF47A7003F000FDDB
:1030000040F21F510620FEF785FE40F21F504FF69A
:10301000FF7300E046E0AFF64C120A2100907C20DE
:1030200000F08EFF002002214FF6FF73C54ACDE964
:1030300000102D21912001F081F866E048F2304027
:103040004623A6220A210090962000F0ADFE48F209
:1030500030404FF6FF73AFF63C120A2100909620E5
:1030600000F06EFF4FF47A7003F0CAFC40F21F517B
:103070000620FEF74FFE40F21F504FF6FF73AFF6EB
:10308000B4120A2100907C2000F05AFF0020022197
:103090004FF6FF73AB4ACDE900102D21912001F0CE
:1030A0004DF832E048F230404623A6220A21009033
:1030B000962000F079FE48F230404FF6FF73AFF6ED
:1030C00098120A210090962000F03AFF4FF47A708F
:1030D00003F096FC40F21F510620FEF71BFE40F263
:1030E0001F504FF6FF73AFF61C220A2100907C2080
:1030F00000F026FF002002214FF6FF73914ACDE930
:1031000000102D21912001F019F818E148F230400B
:103110004FF6FF73AFF64022512100907C2000F063
:103120000FFF48F230404FF6FF73AFF2C4125F2139
:103130000090962000F004FF834802F0C6FC0028AF
:103140007ED181480078E8BB7F488079022845D04D
:1031500048F230404FF6FF73AFF2EC12512100906D
:10316000962000F0EDFE4FF47A7003F049FC7648AB
:10317000407A03904FF6FF71039801EA0020039014
:103180007148817A0398084480B20A2190FBF1F0DB
:1031900080B20390AFF64C716C48039A05F0E8FEDC
:1031A00040F21F510720FEF7B5FD40F21F504FF6C9
:1031B000FF73AFF6DC22512100907C2000F0C0FEAE
:1031C000002000E040E002214FF6FF735F4ACDE9A6
:1031D00000107421912000F0B1FF9CE048F23040D3
:1031E0008D23A62251210090962000F0DDFD48F2AB
:1031F00030404FF6FF73AFF6887251210090962051
:1032000000F09EFE4FF47A7003F0FAFB40F21F517B
:103210000720FEF77FFD40F21F504FF6FF73AFF619
:103220004832512100907C2000F08AFE00200221CB
:103230004FF6FF73454ACDE900107421912000E05C
:1032400036E000F07BFF66E048F230408D23A62296
:1032500051210090962000F0A7FD48F230404FF633
:10326000FF73AFF6483251210090962000F068FEBF
:103270004FF47A7003F0C4FB40F21F510720FEF7B1
:1032800049FD40F21F504FF6FF73AFF6B4325121A3
:1032900000907C2000F054FE002002214FF6FF73C6
:1032A0002A4ACDE900107421912000F047FF32E056
:1032B00048F230408D23A62251210090962000F044
:1032C00073FD48F230404FF6FF73AFF6A432512140
:1032D0000090962000F034FE4FF47A7003F090FBDB
:1032E00040F21F510720FEF715FD40F21F504FF628
:1032F000FF73AFF61C42512100907C2000F020FEAD
:10330000002002214FF6FF73104ACDE9001074210E
:10331000912000F013FF12E048F230410820FEF740
:10332000F9FC48F230404FF6FF73AFF64842A62151
:103330000090882000F004FEFFF751B800BF00BFE6
:10334000FFF747B86D000020D82300207000002050
:103350001CB5044654B94FF6FF7003215623702262
:10336000CDE900101921412001F0C8FA012C0AD141
:103370004FF6FF700321C4237022CDE9001087218E
:10338000412001F0BBFA1CBD1CB5044694B94FF6B0
:10339000FF705623702219210090412000F004FD97
:1033A0004FF6FF7040F21F5345A22021009050209D
:1033B00000F0C6FD012C13D14FF6FF70C42370221C
:1033C00087210090412000F0EFFC0020012140F215
:1033D0001F533DA2CDE900109521502000F0AEFE14
:1033E0001CBD1CB540F21F505623702219210090BD
:1033F000412000F0D9FC40F21F504FF6FF7330A27D
:1034000020210090502000F09BFD40F21F50C4236B
:10341000702287210090412000F0C6FC002001218D
:103420004FF6FF7328A2CDE900109521502000F03F
:1034300085FE1CBD1CB5694601A801F03CFDBDF828
:10344000040041280DDDBDF80000192809DDBDF894
:103450000400702805DABDF80000562801DA0020C3
:103460001CBDBDF8040041280DDDBDF80000872813
:1034700009DDBDF80400702805DABDF80000C42895
:1034800001DA0120ECE7FF20EAE710B5FFF7A9FF1A
:1034900015E0AFF25F0001F06AFE0446FF2C0ED08B
:1034A000022C03DA2046FFF753FF08E004F00F0078
:1034B0000749087008460078FFF766FF10BDE8E787
:1034C000D2D4CCABCDF800004750525300000000DE
:1034D0007A1B002008B50121102003F0D1FF4FF422
:1034E0000050ADF8000048208DF8030069465148AF
:1034F00003F0AAFC08BD10B54FF400514D4803F08D
:1035000034FD38B94FF400514A4803F02EFD08B994
:10351000022010BDFF20FCE710B5FFF7ECFF0446CA
:103520004548007808287FD2DFE800F004112137F1
:1035300052667E73FF2C06D001203F4908700020A0
:103540003E49086002E0FF203D4908706DE0FF2C15
:1035500009D03A4800680A2808D302203649087082
:103560003748047002E00020334908705DE0FF2C0A
:103570000CD032480068B0F5FA7F0DD307202E49F1
:10358000087044F080002E49087005E003202A49A5
:10359000087000202949086047E028480068C828CA
:1035A0000CD226480068322811D9FF2C0FD00420F5
:1035B0002149087000202149086008E0204800786F
:1035C00040F020001E49087000201B4908702CE0C4
:1035D000FF2C07D0194800680A280CD90520164985
:1035E000087008E01648007840F020001449087080
:1035F00000201149087018E0FF2C08D100200E4966
:1036000008700F48007840F010000D4908700CE079
:103610000AE0FF2C04D044F040000949087002E0A1
:1036200000200549087000E000BF00BF0448007892
:1036300010BD00000010014073000020A80D002004
:103640007400002008B503208DF8000000208DF8DC
:1036500001008DF8020001208DF80300684603F098
:10366000C8FA08BDF0B503460C461546642093FB26
:10367000F0F0C6B2642093FBF0F700FB1730C1B244
:10368000132E02DD01F16400C1B20846CF1701EB31
:10369000977701EBA707BAB2072092FBF0F700FB80
:1036A000172082B25719601EDFF8FCC21CF8000018
:1036B000384482B2CF1701EB9777BF10B1EB870781
:1036C00003D1032C01DA501E82B2072092FBF0F7DF
:1036D00000FB1720C0B2F0BD0146CA1701EB927281
:1036E0009210B1EB820212D1642091FBF0F200FB48
:1036F000121050B94FF4C87091FBF0F200FB121099
:1037000008B9012070470020FCE70120FAE70020FB
:10371000F8E770B5002600240025A4480688360482
:10372000001D00880644A248B6FBF0F4A1480088BA
:10373000A0423CD09F490C8040F2B27510E0284670
:10374000FFF7CAFF40B1B4F5B77F02D3A4F5B77451
:1037500004E0681C85B206E0A4F26D14681C85B212
:10376000B4F5B67FEBD800BF93488580002516E0FE
:1037700091498888FFF7B0FF30B1012D04D11D2C8D
:1037800001D31D3C09E00CE08C48405DA04203D809
:103790008A48405D241A00E003E0681C85B21C2CB6
:1037A000E6D200BF681C84498871601CC8718048DB
:1037B000B6FBF0F100FB11644FF46160B4FBF0F074
:1037C0007D4908704FF46160B4FBF0F100FB1140DB
:1037D0003C21B0FBF1F0784948704FF46160B4FBD4
:1037E000F0F100FB11403C21B0FBF1F201FB1200B3
:1037F000714988700B46DA7999799888FFF732FF1A
:103800006D490872002070BD2DE9F05F06460F4635
:1038100090469946DDE90AAB002440F2B270864238
:1038200003DB40F63300864202DD0120BDE8F09F55
:1038300040F2B2750AE02846FFF74EFF10B160482B
:10384000044401E05F480444681C85B2B542F2DBE1
:10385000781EC7B2002510E05848405D40F2A32111
:10386000484304EBC0143046FFF736FF18B1012D72
:1038700001D14F480444681C85B2BD42ECDBA8F17D
:10388000010040F2A321484304EBC014C9EB4910E6
:10389000C0EB092004EB0014CAEB0A1004EB80040F
:1038A0005C4401214FF0C05003F0F7FD012003F00C
:1038B00022FC204603F075FE03F0A6FE0020B5E7CB
:1038C0001CB50024042003F032FAA0F5A0415039C1
:1038D00047D001214FF0C05003F0DFFD012003F07D
:1038E0000AFC03F0EFF9012003F03AFD04E0601C4C
:1038F000C4B20A2003F084F8412003F09AFC0028A7
:10390000F5D0FA2C01DB01201CBD4FF4807003F0D0
:1039100040FD012003F043FD03F076FE03F07CFE42
:103920000121084603F014FE03F06EFE03F01DFEB5
:1039300047F6FF7003F042FE03F066FE37200021D9
:103940000A230222CDE900100C2140F2D970FFF7C2
:103950005BFF03F013FE45F25001042003F0DBF996
:1039600007E003F059FE0121084603F0F1FD03F0E2
:103970004BFEFFF767FEFFF7CCFE0020C4E710B553
:10398000012003F06DFE08B1FFF7C3FE022003F033
:1039900067FE10B1022003F073FE052003F070FEF5
:1039A00003F032FE10BD0000A4A700081828004054
:1039B0008051010076000020AA1B0020B0A700085B
:1039C0000085E2018033E10170B50446002001F07A
:1039D000BEF8002001F0DFF82546E11704EB116185
:1039E000C1F30F2001F040F9002001F019F9012086
:1039F00001F016F9E11704EB11610912A4EB0121A2
:103A000088B201F031F9002001F00AF9012001F03B
:103A100007F9012001F09BF870BD70B50446002045
:103A200001F095F8012001F0B6F82546E11704EB06
:103A30001161C1F30F2001F017F9002001F0F0F837
:103A4000012001F0EDF8E11704EB11610912A4EB7C
:103A5000012188B201F008F9002001F0E1F801200D
:103A600001F0DEF8012001F072F870BD06E00A21D5
:103A700000BF0A00A1F1010399B2FAD10200A0F13E
:103A80000103D8B2F3D1704710B5012001F05FF8FF
:103A9000012001F080F8012001F0C2F8012001F0BE
:103AA0009EF810BD10B5002001F02DF80F20FFF793
:103AB000DDFF012001F027F80520FFF7D7FF10BD3B
:103AC00010B5FFF7E1FFFFF7EDFF1420FFF77CFFD4
:103AD0003020FFF7A2FF0F20FFF776FF0820FFF747
:103AE0009CFF1120FFF770FF40F23120FFF795FF98
:103AF0001220FFF769FF0920FFF78FFF1320FFF760
:103B000063FF42F65810FFF788FF1020FFF75CFFB5
:103B100045F26820FFF781FF2820FFF7A7FF12205A
:103B2000FFF752FF1920FFF778FF2820FFF79EFFCD
:103B30001020FFF749FF43F26020FFF76EFF1320CC
:103B4000FFF742FF41F65810FFF767FF2820FFF705
:103B50008DFF3020FFF738FF0020FFF75EFF312098
:103B6000FFF732FF40F20150FFF757FF3220FFF717
:103B70002BFF40F20720FFF750FF3320FFF724FF11
:103B800040F20250FFF749FF3420FFF71DFF0720E6
:103B9000FFF743FF3520FFF717FF40F20160FFF703
:103BA0003CFF3620FFF710FF40F20770FFF735FFAC
:103BB0003720FFF709FF40F20530FFF72EFF3820CE
:103BC000FFF702FF40F20E40FFF727FF3920FFF713
:103BD000FBFE40F20E40FFF720FF3A20FFF7F4FE15
:103BE00040F20110FFF719FF3B20FFF7EDFE40F216
:103BF0000110FFF712FF3C20FFF7E6FE40F2011034
:103C0000FFF70BFF3D20FFF7DFFE40F20110FFF74B
:103C100004FF3E20FFF7D8FE0120FFF7FEFE3F2005
:103C2000FFF7D2FE0120FFF7F8FE2120FFF7CCFEC0
:103C30000020FFF7F2FE0120FFF7C6FE40F21B3026
:103C4000FFF7EBFE0220FFF7BFFE4FF4E060FFF747
:103C5000E4FE0320FFF7B8FE41F23800FFF7DDFE77
:103C60000820FFF7B1FE41F21000FFF7D6FE0A2050
:103C7000FFF7AAFE44F22040FFF7CFFE0B20FFF72C
:103C8000A3FE45F23000FFF7C8FE0F20FFF79CFEB1
:103C90000D20FFF7C2FE0A20FFF7E8FE0720FFF71E
:103CA00093FE0520FFF7B9FE0720FFF78DFE2520C4
:103CB000FFF7B3FE0720FFF787FE2720FFF7ADFED3
:103CC0000720FFF781FE3720FFF7A7FE10BD2DE983
:103CD000F04104460D4616461F464420FFF774FE89
:103CE00004EB062188B2FFF798FE4520FFF76CFE33
:103CF00005EB072188B2FFF790FE2120FFF764FE55
:103D000004EB052188B2FFF788FE2220FFF75CFE56
:103D1000BDE8F08170B50646DB23AF2200210846DE
:103D2000FFF7D5FF00240AE0002504E03046FFF746
:103D300074FE681C85B2DC2DF8DB601C84B2B02CEC
:103D4000F2DB70BD2DE9F04705460E4614461F46CE
:103D50003019401E83B22819401E82B231462846CF
:103D6000FFF7B5FF4FF000080FE04FF0000906E045
:103D70003846FFF752FE09F101001FFA80F9A1450C
:103D8000F6DB08F101001FFA80F8A045EDDBBDE885
:103D9000F08770B505460E4614462346012231468B
:103DA0002846FFF7CFFF70BD2DE9F04704460D46CA
:103DB00016461F46DDF820A03B46324629462046DF
:103DC000FFF785FF4FF0000810E04FF0000906E014
:103DD0005046FFF722FE09F101001FFA80F9781B17
:103DE0004845F5DA08F101001FFA80F8301B40451C
:103DF000EBDABDE8F0872DE9F84F05460E46174689
:103E00001C46DDF828A0A846B146012F04D109EBD5
:103E100004001FFA80F903E008EB04001FFA80F8A1
:103E20004B46424631462846CDF800A0FFF7BCFF7E
:103E3000BDE8F88F2DE9F8430746884614461D462D
:103E4000089EA5EB080083B2012241463846009641
:103E5000FFF7D1FFA5EB080083B2012241462046BF
:103E60000096FFF7C8FFE01B83B2022241463846A6
:103E70000096FFF7C0FFE01B83B2022229463846B6
:103E80000096FFF7B8FFBDE8F8832DE9F047064636
:103E90000F4690469A46002445460320A0EB480969
:103EA0004AE07A1B91B2321990B25246FFF771FF85
:103EB0003A1B91B2721990B25246FFF76AFF3A1953
:103EC00091B2721990B25246FFF763FF7A1991B21C
:103ED000321990B25246FFF75CFF7A1991B2321B49
:103EE00090B25246FFF755FF3A1991B2721B90B249
:103EF0005246FFF74EFF7A1B91B2321B90B25246E8
:103F0000FFF747FF3A1B91B2721B90B25246FFF780
:103F100040FF601C04B2B9F1000F05DAA000801D5B
:103F200048440FFA80F907E0601B80000A304844DB
:103F30000FFA80F9681E05B2AC42B2DDBDE8F08729
:103F40002DE9FF5F83460E4614464FF0010A55E007
:103F50000F2000FB0A6083B20BF10F0082B2AAF1BE
:103F600001004FF00F0C0CFB006081B25846FFF7C8
:103F7000AEFE00253BE0C5EBC50000EB8000FE492E
:103F8000085C2178884230D1C5EBC50000EB800089
:103F9000F949084440786178884226D1002722E018
:103FA000C5EBC50000EB8000F3490844C01C10F8C5
:103FB00007904FF0000811E019F0800F03D003982C
:103FC000FFF72BFD02E00E98FFF727FD4FEA49604F
:103FD0004FEA106908F1010000F0FF08B8F1080F7E
:103FE000EADB781CC7B2202FDADB681C85B2602DB3
:103FF000C1D3A41C0AF1010000F0FF0A20780028B8
:10400000A6D1BDE8FF9F2DE9FF5F83460E4614460B
:104010004FF0010A55E01F2000FB0A6083B20BF14C
:104020001F0082B2AAF101004FF01F0C0CFB0060D0
:1040300081B25846FFF74BFE00253BE005EB4500FB
:1040400000EBC510CD49085C2178884230D105EBE2
:10405000450000EBC510C9490844407861788842A2
:1040600026D1002722E005EB450000EBC510C3492F
:104070000844C01C10F807904FF0000811E019F038
:10408000800F03D00398FFF7C8FC02E00E98FFF7FB
:10409000C4FC4FEA49604FEA106908F1010000F0E2
:1040A000FF08B8F1080FEADB781CC7B2802FDADB13
:1040B000681C85B2002DC1D0A41C0AF1010000F0DB
:1040C000FF0A20780028A6D1BDE8FF9F2DE9F04720
:1040D0000746884615461E46DDF8209005FB06F08B
:1040E0004FEA400A08EB0600401E83B27819401ED2
:1040F00082B241463846FFF7EAFD00240AE009EBA8
:1041000004014A7819F8041002EB012188B2FFF784
:1041100084FCA41C5445F2D3BDE8F08730B50346B7
:1041200003EBC300C0EB831001EB800044001019C7
:104130004578105D05EB002080B230BD2DE9FF4FC2
:1041400087B089461746002500264FF00108002059
:1041500006901498012806D002280AD003280ED011
:1041600004281CD113E008244FF0100ADFF810B225
:1041700015E00C244FF0180ADFF808B20FE01824FD
:104180004FF0300ADFF800B23020069007E010242C
:104190004FF0200ADFF8F4B12D20069000BF00BFD9
:1041A00004FB0AF0C11700EB5171C1F3CF01059177
:1041B000149802287ED14FEA0A10C11700EB517102
:1041C000C1F3CF0105911598002874D0012873D14F
:1041D0008BE004FB0890401E83B207985044401EB9
:1041E00082B2A8F1010004FB009081B20798FFF7AA
:1041F0006EFD002571E039780698091A059801FBD3
:1042000000B0405D0490002628E0049810F0800F74
:1042100003D00A98FFF701FC1AE0E80090FBF4F1E4
:1042200004FB1101A8F1010004FB00900844304494
:1042300080B20290E80090FBF4F10798084480B245
:10424000534A01900299FFF769FF0390FFF7E5FBDE
:1042500004984006000E0490701C86B2082ED4DB31
:10426000681C85B239780698091A059801FB00B0D8
:10427000405D049000262CE0049810F0800F03D0DD
:104280000A98FFF7CAFB1EE0E80090FBF4F104FB7C
:104290001101A8F1010004FB00900844304480B2F1
:1042A0000290E80090FBF4F10798084480B2384A85
:1042B000019002E0B7E01DE0B4E00299FFF72EFFA5
:1042C0000390FFF7AAFB04984006000E0490701CB0
:1042D00086B2042ED0DB681C85B2059885428ADB45
:1042E0007F1C08F101001FFA80F8387800287FF45D
:1042F00070AF97E04FF000088FE0002584E00026C3
:104300007DE02801C11700EB5171CA103B78069976
:104310005B1A059903FB01B11144895D01910020ED
:10432000049020E0019810F0800F14D007982844E2
:1043300080B2039009EBC60008FB0401049808440E
:1043400080B20290DDE9023219461046FFF7BFFC49
:104350000A98FFF762FB01984006000E019004984E
:10436000401CC0B2049004980828DBDB701C86B2A5
:104370002801C1170EE00000780000206CD1000871
:10438000BCA70008BCAF00083CCB0008BCC70008B5
:10439000EFD1000800EB5171CA103B7806995B1A07
:1043A000059903FB01B11144895D0191002004903E
:1043B00020E0019810F0800F14D00798284480B2B4
:1043C000039009EBC60008FB04010498084480B27E
:1043D0000290DDE9023219461046FFF778FC0A9890
:1043E000FFF71BFB01984006000E01900498401C4B
:1043F000C0B2049004980428DBDB701C86B2022E45
:10440000FFF67FAF681C85B25545FFF678AF7F1C7D
:1044100008F101001FFA80F800BF387800287FF407
:104420006CAF00BFAEE01598002857D0012854D1DA
:1044300050E004FB0890401E83B207985044401E91
:1044400082B2A8F1010004FB009081B20798FFF747
:104450003EFC002536E039780698091A059801FBDC
:1044600000B0405D0490002628E0049810F0800F12
:1044700003D00A98FFF7D1FA1AE0E80090FBF4F1B4
:1044800004FB1101A8F1010004FB00900844304432
:1044900080B20290E80090FBF4F10798084480B2E3
:1044A000FE4A01900299FFF739FE0390FFF7B5FA33
:1044B00004984006000E0490701C86B2082ED4DBCF
:1044C000681C85B205988542C5DB7F1C08F1010098
:1044D0001FFA80F838780028ABD152E04FF000087E
:1044E0004BE0002541E0002637E005FB04F0C11752
:1044F00000EB5171CA103B7806995B1A059903FBD2
:1045000001B11144895D01910020049020E00198DF
:1045100010F0800F14D00798284480B2039009EB64
:10452000C60008FB04010498084480B20290DDE94B
:10453000023219461046FFF7CAFB0A98FFF76DFAD8
:1045400001984006000E01900498401CC0B20490EF
:1045500004980828DBDB701C86B2E11704EB51716C
:10456000B6EBE10FC1DB681C85B25545BBDB7F1C98
:1045700008F101001FFA80F800BF38780028B0D198
:1045800000BF00BF0BB0BDE8F08F2DE9FF4F85B035
:104590008A4617464FF001091298012802D00228D6
:1045A0007ED180E0102410210491049904FB01F0D5
:1045B000C11700EB5171C91003916EE004FB09A013
:1045C000401E83B2DDE904C06044401E82B2A9F1FE
:1045D000010004FB00A081B20598FFF778FB0025DD
:1045E00054E0C5EBC50000EB8000AD49085C3978AC
:1045F000884249D1C5EBC50000EB8000A8490844BA
:104600004078797888423FD100263AE0C5EBC50072
:1046100000EB8000A2490844C01C10F806B04FF01F
:10462000000829E01BF0800F03D00898FFF7F5F988
:104630001AE0F00090FBF4F104FB1101A9F1010074
:1046400004FB00A00844404480B20190F00090FBBD
:10465000F4F10598084480B2904A00900199FFF760
:104660005DFD0290FFF7D9F94FEA4B604FEA106BFE
:1046700008F1010000F0FF08B8F1080FD2DB701C50
:10468000C6B203988642C1DB681C85B2602DA8D3F0
:10469000BF1C09F1010000F0FF093878002800E094
:1046A00080E08BD17EE0202420210491049904FB3A
:1046B00001F0C11700EB5171C91003916EE004FBCA
:1046C00009A0401E83B2DDE904C06044401E82B2EE
:1046D000A9F1010004FB00A081B20598FFF7F7FAE9
:1046E000002554E005EB450000EBC5106D49085C62
:1046F0003978884249D105EB450000EBC51069497E
:1047000008444078797888423FD100263AE005EBAA
:10471000450000EBC51063490844C01C10F806B002
:104720004FF0000829E01BF0800F03D00898FFF736
:1047300074F91AE0F00090FBF4F104FB1101A9F107
:10474000010004FB00A00844404480B20190F00046
:1047500090FBF4F10598084480B2504A009001990A
:10476000FFF7DCFC0290FFF758F94FEA4B604FEA85
:10477000106B08F1010000F0FF08B8F1080FD2DB60
:10478000701CC6B203988642C1DB681C85B2002D3E
:10479000A8D0BF1C09F1010000F0FF0938780028FB
:1047A0008DD100BF00BF09B0BDE8F08F2DE9F04703
:1047B00004460D46904699464B46424629462046B9
:1047C000FFF785FA002613E000270BE0EA1991B203
:1047D000A21990B2314AFFF7A1FC8246FFF71DF9FA
:1047E000781C87B2A9EB0500B842EFDA701C86B2DC
:1047F000A8EB0400B042E7DABDE8F0872DE9F0410C
:1048000006460F46154698462C4607E04346224684
:1048100039463046FFF739FB601EC4B2002CF5DC88
:10482000BDE8F0812DE9FF5F06460F4690461D4624
:10483000DDE90EAB08FB05F0400003907819401E3F
:1048400083B206EB0800401E82B239463046FFF7BD
:104850003EFA00242BE00AEB040041781AF8040029
:1048600001EB00201FFA80F9D94503D04846FFF735
:10487000D4F81BE06008B0FBF5F105FB11003844EB
:1048800080B201906008B0FBF5F0304480B2034A7A
:1048900000900199FFF742FC029005E0EFD100087B
:1048A000780000206CD10008FFF7B7F8A41C03982B
:1048B0008442D0D3BDE8FF9F2DE9F84F07468846D4
:1048C00091461C46DDE90AAB3D464646B9F1010F6B
:1048D00005D105EB0A0085B2301986B204E028192B
:1048E00085B206EB0A0086B233462A464146384670
:1048F000CDF800B0FFF758FABDE8F88F2DE9F84F72
:1049000005460E4617469846DDE90A9A002415E04A
:10491000A8EB040C1FFA8CF3A7EB040C1FFA8CF223
:1049200006EB040C1FFA8CF105EB040C1FFA8CF05B
:10493000CDF800A0FFF77EFA601C84B24C45E7DB9F
:10494000BDE8F88F2DE9F84F0746884615461E4604
:10495000DDE90A9B05FB06F04000009008EB06002D
:10496000401E83B27819401E82B241463846FFF796
:10497000AEF9002412E009EB0400417819F80400B4
:1049800001EB00201FFA80FADA4503D00C98FFF7FC
:1049900044F802E00D98FFF740F8A41C0098844208
:1049A000E9D3BDE8F88F2DE9FF5F06460F46904634
:1049B0001D46DDE90EAB08FB05F0400003907819B9
:1049C000401E83B206EB0800401E82B239463046D4
:1049D000FFF77DF9002424E00AEB040041781AF87F
:1049E000040001EB00201FFA80F9D94503D14846A5
:1049F000FFF713F814E06008B0FBF5F105FB1100B8
:104A0000384480B201906008B0FBF5F0304480B2C9
:104A1000224A00900199FFF781FB0290FEF7FDFF0B
:104A2000A41C03988442D7D3BDE8FF9F38B5044641
:104A3000C823602232215020FFF7B8FE204604F040
:104A400039FC00016E21A1EB900085B201204FF6E8
:104A5000FF732246294600905020FFF796FD38BD8F
:104A60007CB50446C823602232215020FFF79EFE09
:104A7000204604F01FFC00EB400080006E21A1EBFB
:104A8000500085B2012002214FF6FF732246CDE986
:104A9000001029465020FFF751FB7CBDEFD10008E4
:104AA00010B50121042002F0EBFC0121082002F0E6
:104AB000E7FC0121102002F0E3FC0121202002F09C
:104AC000DFFC10BD38B50446AB48007880B18020CB
:104AD000ADF8000010208DF8030003208DF80200CF
:104AE0006946A64802F0B0F90020A349087000BF4B
:104AF00024B98021A14802F052FA03E080219F48A6
:104B000002F04FFA38BD38B504469D48007888B1A8
:104B10004FF48050ADF8000010208DF80300032002
:104B20008DF802006946954802F08EF900209449FC
:104B3000087000BF2CB94FF48051904802F031FA50
:104B400004E04FF480518D4802F029FA38BD38B5A1
:104B500004468C48007888B14FF40060ADF800003E
:104B600010208DF8030003208DF802006946834869
:104B700002F06AF900208349087000BF2CB94FF495
:104B800000617E4802F00DFA04E04FF400617B48BA
:104B900002F005FA38BD38B504467B48007888B184
:104BA0004FF48060ADF8000010208DF80300032062
:104BB0008DF802006946714802F046F900207249FA
:104BC000087000BF2CB94FF480616C4802F0E9F91D
:104BD00004E04FF48061694802F0E1F938BD38B56E
:104BE00004466A48007880B10120ADF8000010202A
:104BF0008DF8030003208DF8020069465F4802F03B
:104C000023F900206149087000BF24B901215B48E5
:104C100002F0C7F903E00121584802F0C0F938BD9D
:104C200038B504465A48007888B14FF48050ADF842
:104C3000000010208DF8030003208DF80200694663
:104C4000544802F001F900205149087000BF2CB906
:104C50004FF480514F4802F0A4F904E04FF4805122
:104C60004C4802F09CF938BD38B504464A480078F3
:104C700088B14FF47F40ADF8000010208DF803009C
:104C800003208DF802006946444802F0DDF8002058
:104C90004149087000BF2546E01704EB1060001280
:104CA000A4EB00204FF6FF7202EA00213B4802F01D
:104CB0007FF938BD704708B53948007888B14FF49E
:104CC0008070ADF8000048208DF8030003208DF8B7
:104CD00002006946294802F0B7F800203049087000
:104CE00000BF4FF48071254802F03FF908BD38B588
:104CF00004462C48007888B14FF40070ADF80000ED
:104D000010208DF8030003208DF8020069461B482F
:104D100002F09AF800202349087000BF2CB94FF424
:104D20000071164802F03DF904E04FF40071134899
:104D300002F035F938BD38B504461B48007880B11B
:104D40004020ADF8000010208DF8030003208DF8FE
:104D500002006946094802F077F8002012490870FD
:104D600000BF24B94021054802F01BF903E04021AF
:104D7000024802F014F938BD980D002000100140DF
:104D8000990D00209A0D00209B0D00209C0D002005
:104D90009D0D0020000801409E0D0020000C0140E8
:104DA0009F0D0020A00D0020A10D002008B54FF49C
:104DB0000060ADF8000010208DF8030003208DF88E
:104DC00002006946FE4802F03FF84FF40061FC48DB
:104DD00002F0E7F808BD70B504460020FFF7ABFF0E
:104DE000002519E014F0800F03D00120FFF77FFFAA
:104DF00002E00020FFF77BFF6006040E0020FFF7B3
:104E00009AFF00BF00BF00BF0120FFF794FF00BF63
:104E100000BF00BF681CC5B2082DE3DB70BD70B5D4
:104E20000024002516E04FF6FF7000EA440401203C
:104E3000FFF781FF00BF00BF00BF0020FFF77BFF2F
:104E400000BF00BF00BFFFF736FF08B1601C84B28F
:104E5000681CC5B20C2DE6DB204670BD10B50446BB
:104E60000020FFF727FF9020FFF7B5FF0120FFF795
:104E700062FF00BF00BF00BF0020FFF75CFF00BF64
:104E800000BF00BFFFF7CBFF6080D020FFF7A3FF7C
:104E90000120FFF750FF00BF00BF00BF0020FFF759
:104EA0004AFF00BF00BF00BFFFF7B9FF208001200D
:104EB000FFF700FF10BD2DE9F0418AB00746884694
:104EC000002406E0694601EB8400FFF7C7FF601C81
:104ED000C4B20A2CF6DB002533E000242DE03DF8B7
:104EE0002410601C3DF82000814208DD601C3DF864
:104EF00020603DF824102DF820102DF8246068461D
:104F000000EB840041886A46601C02EB8000408808
:104F1000814210DD6946601C01EB800046886846CE
:104F200000EB84004188601C02EB800041806846F1
:104F300000EB84004680601CC4B2092CCFDB681CE7
:104F4000C5B2022DC9DB002533E000242DE03DF879
:104F50002410601C3DF82000814208DA601C3DF8F6
:104F600020603DF824102DF820102DF824606846AC
:104F700000EB840041886A46601C02EB8000408898
:104F8000814210DA6946601C01EB80004688684661
:104F900000EB84004188601C02EB80004180684681
:104FA00000EB84004680601CC4B2092CCFDB681C77
:104FB000C5B2022DC9DB012409E0BDF800003DF8AF
:104FC0002410084480B2ADF80000601CC4B2062C66
:104FD000F3DBBDF80000062190FBF1F080B2ADF8E4
:104FE000000001240BE0BDF80200694601EB8401DA
:104FF0004988084480B2ADF80200601CC4B2062C97
:10500000F1DBBDF80200062190FBF1F080B2ADF8B3
:105010000200BDF80000FF282EDDBDF8000040F6BC
:10502000AB61884228DABDF80200B0F5EB7F23DDE2
:10503000BDF8020040F6D86188421DDABDF80000D4
:10504000FF38142190FBF1F080B2ADF80000BDF8FC
:105050000200A0F5EB700F2190FBF1F080B2ADF8EB
:105060000200BDF800003880BDF80200A8F800007A
:1050700001200AB0BDE8F0810020FAE71CB56946BE
:1050800001A8FFF718FFBDF804006E280DDDBDF87C
:105090000400982809DABDF80000172805DDBDF8DE
:1050A0000000412801DA01201CBDBDF804006E2873
:1050B0000DDDBDF80400982809DABDF800005A2873
:1050C00005DDBDF80000842801DA0220ECE7BDF818
:1050D00004006E280DDDBDF80400982809DABDF83B
:1050E00000009B2805DDBDF80000C52801DA03207B
:1050F000DAE7FF20D8E77CB5694601A8FFF7DBFEB9
:10510000002530E000242AE0C5EBC500C0EB851087
:10511000401DBDF8041088421FDAC4EBC40000EB48
:105120008410401DBDF80010884216DA681CC0EBE0
:10513000C001C1EB8010BDF8041088420DDD601C79
:10514000C0EBC00101EB8010BDF80010884204DD07
:1051500005EB45002044C0B27CBD601CC4B2032CEA
:10516000D2DB681CC5B2032DCCDBFF20F4E770B5A1
:105170000546A84704461348007820B101280FD0FF
:1051800002283CD12BE0FF2C06D001200D490870ED
:1051900000200D49086002E0FF200C4908702FE054
:1051A000FF2C15D008480068192817D3022005499C
:1051B0000870064804700020034908600EE00000F3
:1051C00000080140A20D0020AC0D0020A30D00201E
:1051D00000200D490870FF200C49087010E00B48B2
:1051E000007884420AD000200749087007480478F4
:1051F000FF200649087044F0200070BD00E000BFA9
:1052000000BF02480078F8E7A20D0020A30D00209F
:105210007FB505460C460121022002F03EF9ADF8AB
:105220000850ADF804400020ADF80A00ADF80600C3
:1052300001A9184802F002FB01221146154802F0AC
:1052400074FE1D208DF8000000208DF80100032061
:105250008DF8020001208DF80300684601F0C9FCBA
:1052600001210C4802F046FE7FBD10B5012109481E
:1052700003F009F968B10121064803F015F9064861
:105280000068401C0449086004480068401C034949
:10529000086010BD00040040A80D0020AC0D0020E7
:1052A00010B5044644B10021A24803F0B7F801212B
:1052B000A04802F01FFE03E000219E4802F01AFE03
:1052C00010BD10B540F225519B4803F0B1FA10B360
:1052D000994803F02DFAC4B29848008810F4004FA2
:1052E00020D196480088B0F5806F15DA00219148EA
:1052F00003F094F89148008810B90120FFF7D0FF1F
:105300008E480088C0F30D008D490C548B480088EE
:10531000401C8A49088005E08848008840F4004025
:105320008649088010BD7FB505460C460121042042
:1053300002F0B3F8ADF80450ADF800400020ADF82D
:105340000600ADF8020069467A4802F077FA0122B9
:105350001146784802F0E9FD1E208DF80C0001206E
:105360008DF80D0002208DF80E0001208DF80F0041
:1053700003A801F03EFC7FBD70B58CB006460C461C
:1053800015460121084602F06EF8304603F094FA03
:105390000194029510200390002004900590802035
:1053A000069000200790089009904FF480500A90D2
:1053B00000200B9001A9304603F020FB0CB070BD1B
:1053C00010B586B004460121042002F059F80121ED
:1053D000480402F062F8584803F06AF80420ADF877
:1053E000100003208DF8120018208DF8130004A976
:1053F000544801F029FD0820ADF8100004208DF874
:10540000130004A94F4801F01FFD00940020ADF8DF
:105410000400ADF80600ADF80800ADF80C000C2053
:10542000ADF80A006946444803F085F8012280215E
:10543000414803F03DF9444A3F49091D4348FFF7FD
:105440009BFF01213C4803F002F9012240F2255163
:10545000394803F008F926208DF8140002208DF851
:10546000150003208DF8160001208DF8170005A8FF
:1054700001F0BFFB41F61F410811FFF754FF002068
:105480002E490880FFF70CFF06B010BD70B504462A
:105490000D460021204603F0DCFA2946204603F0A1
:1054A000EDFA0121204603F0D4FA70BD0FB438B5EF
:1054B00005A800902448009A049903F03BFD00BF22
:1054C000234800680028FBD11F4803F0F3FE84B294
:1054D00021461E48FFF7DAFF38BC5DF814FB70B5B3
:1054E00005460E46002404E0305D17490855601C4F
:1054F000C4B2AC42F8DB00BF154800680028FBD1FD
:1055000029461248FFF7C2FF70BD10B501210948B6
:1055100002F0B9FF60B10948008840F40040074933
:1055200008800121034802F0BFFF0020FFF7B8FE0A
:1055300010BD00000008004000440040781B00201F
:10554000B81F002000080140B81B00208000024066
:105550008400024070B502460B4600200024F94D3D
:105560002D88C5F30E05F84E7455F64C207820288A
:1055700000DD2020002104E0F34C645C5C544C1CF2
:10558000E1B28142F8DB12B10024EE4D2C8070BDF7
:1055900030B503460C460022EA480088C0F30E02EC
:1055A000012A00DD8022002106E0E74D01F14400E0
:1055B000285C6054481C81B29142F6DB13B1002094
:1055C000E04D2880D0B230BD70B504460025DD48DE
:1055D000008810F4004F0BD00020DA490988C1F38D
:1055E0000E01D94A50542146104603F051FE05469B
:1055F000284670BD2DE9F04104460E4615460027A9
:105600000020D0490880FF2C07D800BFCF48006891
:105610000028FBD1CE490C8003E02146CDA0FFF746
:1056200045FFC6B1BDB10FE00A2001F0E9F9C54858
:10563000008810F4004F07D03046FFF7C5FF00B1D7
:1056400006E00020BF490880681E80B20500EBD14B
:1056500000BF05B901273846BDE8F0812DE9F041CA
:1056600004460E46154600270020B6490880FF2C48
:1056700007D800BFB54800680028FBD1B4490C80AA
:1056800003E02146B5A0FFF711FFC6B1BDB10FE0A1
:105690000A2001F0B5F9AB48008810F4004F07D09C
:1056A0003046FFF791FF00B106E00020A5490880D1
:1056B000681E80B20500EBD100BF05B9012738464E
:1056C000BDE8F0810146302905DB392903DCA1F171
:1056D0003000C0B27047412905DB462903DCA1F147
:1056E0003700C0B2F6E7612905DB662903DCA1F1CA
:1056F0005700C0B2EEE70020ECE7F0B5A1B00446D9
:10570000012740F2DC564FF4FA7295A195A0FFF7FD
:1057100071FF074623E08B48008810F4004F1BD030
:1057200001A90020FFF734FF002508E0A900C91CEB
:1057300001AA505CFFF7C6FF6055681CC5B2202D5A
:10574000F4DB022020706070C82285A188A0FFF7DA
:1057500051FF384621B0F0BD052001F051F9701E0F
:1057600080B20600D7D116B9012060702070C8221F
:105770007BA17FA0FFF73EFF3846EBE701460929F2
:1057800003DC01F13000C0B270470A2905DB0F29A4
:1057900003DC01F13700C0B2F6E73020F4E770B562
:1057A00090B005460E46002411E02A5D73A16846BC
:1057B00003F0DEFB285D102803DA71A1304603F008
:1057C00098FD6946304603F094FD601CC4B2202C5D
:1057D000EBDB002410B070BD70B50446204603F02A
:1057E00069FD05462946204603F006FE70BD10B54A
:1057F00064480078012832D1C82259A162A0FFF77D
:10580000F9FE642256A162A0FFF7F4FEC82254A15B
:1058100062A0FFF7EFFE642251A163A0FFF7EAFE4A
:10582000C8224FA163A0FFF7E5FE4FF4FA724CA126
:1058300067A0FFF7DFFEC82249A169A0FFF7DAFEE3
:10584000C82247A14AA0FFF7D5FEC82244A167A0FD
:10585000FFF7D0FE08B9002010BD0120FCE7494841
:105860000078002825D166A4C82271A173A0FFF793
:10587000C1FEC82275A177A0FFF7BCFEC82238A1DF
:1058800041A0FFF7B7FE4FF4FA7235A140A0FFF731
:10589000B1FEC82232A141A0FFF7ACFE4FF4FA726C
:1058A0002FA12046FFF7A6FE08B90020D4E701206B
:1058B000D2E70120D0E770B5A6B0054601267022D8
:1058C00067490AA803F066FD2E480078012838D100
:1058D000002405E0285D303001A90855601CC4B2E1
:1058E000202CF7DB22208DF8240000208DF82500E5
:1058F00064221BA12CA0FFF77DFE642218A12DA01D
:10590000FFF778FE642216A135A0FFF773FE64222C
:1059100013A136A0FFF76EFE0A2252A10AA8FFF7D4
:105920009DFE64220EA101A8FFF764FE4FF4FA6207
:105930004DA14EA0FFF75EFE10B9002026B070BD4D
:105940009CE09EE0781B0020B81F002084000240ED
:105950000444004025730D0A000000002573000078
:105960004F4B000041542B434D47523D323700000E
:1059700041542B434D47443D323700002578000009
:10598000300000007A1B002041542B435354540034
:1059900041542B43494943520000000041542B43DA
:1059A000494653520000000041542B48545450546F
:1059B00045524D0041542B53415042523D332C31FE
:1059C0002C2241504E222C22434D4E4554220000A1
:1059D00041542B53415042523D312C3100000000C4
:1059E00041542B48545450494E49540041542B487B
:1059F000545450504152413D22434944222C3100DD
:105A000041542B43495053544152543D2254435026
:105A1000222C2277736E3630343630342E7669631A
:105A2000702E6363222C22313230302200000000BD
:105A3000434C4F5345204F4B0000000041542B4333
:105A40004950434C4F53453D310000005348555495
:105A5000204F4B0041542B434950534855540000AC
:105A6000902202086F6B00003230300041542B4806
:105A7000545450414354494F4E3D3000012026B00C
:105A800070BDDC480078F0B94FF49672DAA1DBA063
:105A9000FFF7B0FD60B929462120FFF720FD4FF444
:105AA0009672D9A11A20FFF7A5FD38B9002605E0A6
:105AB000002211461B20FFF79DFD01260020D4493E
:105AC00008803046DBE70120D9E7F0B589B004460D
:105AD000D0A74FF47A66C748007801283FD1002547
